{"abi":[{"type":"constructor","inputs":[],"stateMutability":"nonpayable"},{"type":"function","name":"chain","inputs":[],"outputs":[{"name":"lastComputedStateRoot","type":"bytes32","internalType":"bytes32"}],"stateMutability":"view"},{"type":"function","name":"computeStateRootWithBAL","inputs":[{"name":"accessedSlots","type":"bytes32[]","internalType":"bytes32[]"},{"name":"newValues","type":"bytes32[]","internalType":"bytes32[]"}],"outputs":[{"name":"","type":"bytes32","internalType":"bytes32"}],"stateMutability":"pure"},{"type":"function","name":"getBlock","inputs":[{"name":"index","type":"uint256","internalType":"uint256"}],"outputs":[{"name":"","type":"tuple","internalType":"struct DelayedStateRoot.BlockHeader","components":[{"name":"number","type":"uint256","internalType":"uint256"},{"name":"parentHash","type":"bytes32","internalType":"bytes32"},{"name":"stateRoot","type":"bytes32","internalType":"bytes32"},{"name":"transactionsRoot","type":"bytes32","internalType":"bytes32"},{"name":"timestamp","type":"uint256","internalType":"uint256"},{"name":"coinbase","type":"address","internalType":"address"}]}],"stateMutability":"view"},{"type":"function","name":"getBlockCount","inputs":[],"outputs":[{"name":"","type":"uint256","internalType":"uint256"}],"stateMutability":"view"},{"type":"function","name":"getLastComputedStateRoot","inputs":[],"outputs":[{"name":"","type":"bytes32","internalType":"bytes32"}],"stateMutability":"view"},{"type":"function","name":"processBlock","inputs":[{"name":"transactionsRoot","type":"bytes32","internalType":"bytes32"},{"name":"coinbase","type":"address","internalType":"address"}],"outputs":[{"name":"blockNumber","type":"uint256","internalType":"uint256"}],"stateMutability":"nonpayable"},{"type":"function","name":"validateHeader","inputs":[{"name":"header","type":"tuple","internalType":"struct DelayedStateRoot.BlockHeader","components":[{"name":"number","type":"uint256","internalType":"uint256"},{"name":"parentHash","type":"bytes32","internalType":"bytes32"},{"name":"stateRoot","type":"bytes32","internalType":"bytes32"},{"name":"transactionsRoot","type":"bytes32","internalType":"bytes32"},{"name":"timestamp","type":"uint256","internalType":"uint256"},{"name":"coinbase","type":"address","internalType":"address"}]}],"outputs":[{"name":"","type":"bool","internalType":"bool"}],"stateMutability":"view"},{"type":"event","name":"AttestationReady","inputs":[{"name":"blockNumber","type":"uint256","indexed":true,"internalType":"uint256"},{"name":"timeSaved","type":"uint256","indexed":false,"internalType":"uint256"}],"anonymous":false},{"type":"event","name":"BlockProposed","inputs":[{"name":"blockNumber","type":"uint256","indexed":true,"internalType":"uint256"},{"name":"stateRoot","type":"bytes32","indexed":false,"internalType":"bytes32"},{"name":"isDelayed","type":"bool","indexed":false,"internalType":"bool"}],"anonymous":false},{"type":"event","name":"StateRootComputed","inputs":[{"name":"forBlock","type":"uint256","indexed":true,"internalType":"uint256"},{"name":"stateRoot","type":"bytes32","indexed":false,"internalType":"bytes32"}],"anonymous":false}],"bytecode":{"object":"0x608060405234801561000f575f80fd5b506040516667656e6573697360c81b60208201525f9060270160408051808303601f19018152828252805160209182012060c0840183525f80855291840182815292840181815260608501838152426080870190815260a0870185815285546001808201885596805297517f290decd9548b62a8d60345a988386fc84ba6bc95484008f6362f93160ef3e56360069099029889015595517f290decd9548b62a8d60345a988386fc84ba6bc95484008f6362f93160ef3e56488015591517f290decd9548b62a8d60345a988386fc84ba6bc95484008f6362f93160ef3e565870155517f290decd9548b62a8d60345a988386fc84ba6bc95484008f6362f93160ef3e566860155517f290decd9548b62a8d60345a988386fc84ba6bc95484008f6362f93160ef3e56785015591517f290decd9548b62a8d60345a988386fc84ba6bc95484008f6362f93160ef3e56890930180546001600160a01b0319166001600160a01b0390941693909317909255905550610a6c8061018e5f395ff3fe608060405234801561000f575f80fd5b506004361061007a575f3560e01c80636465e877116100585780636465e8771461012e5780636f6a1ec314610141578063c763e5a114610149578063cc0bd62e14610153575f80fd5b806304c075691461007e57806317464d58146100ea57806320b09fc51461010b575b5f80fd5b61009161008c36600461080f565b61015a565b6040516100e19190815181526020808301519082015260408083015190820152606080830151908201526080808301519082015260a0918201516001600160a01b03169181019190915260c00190565b60405180910390f35b6100fd6100f8366004610841565b61024b565b6040519081526020016100e1565b61011e61011936600461086b565b610524565b60405190151581526020016100e1565b6100fd61013c36600461093b565b610667565b6001546100fd565b6001546100fd9081565b5f546100fd565b6040805160c0810182525f80825260208201819052918101829052606081018290526080810182905260a08101829052905482106101d55760405162461bcd60e51b8152602060048201526013602482015272496e646578206f7574206f6620626f756e647360681b60448201526064015b60405180910390fd5b5f8054839081106101e8576101e86109a2565b5f9182526020918290206040805160c08101825260069093029091018054835260018101549383019390935260028301549082015260038201546060820152600482015460808201526005909101546001600160a01b031660a082015292915050565b5f80548190819061025e906001906109ca565b8154811061026e5761026e6109a2565b905f5260205f20906006020190505f6040518060c00160405280835f0154600161029891906109dd565b8152602001836040516020016102ae91906109f0565b6040516020818303038152906040528051906020012081526020015f600101548152602001868152602001428152602001856001600160a01b031681525090506102f781610524565b6103335760405162461bcd60e51b815260206004820152600d60248201526c496e76616c696420626c6f636b60981b60448201526064016101cc565b5f80546001808201835591805282517f290decd9548b62a8d60345a988386fc84ba6bc95484008f6362f93160ef3e56360069092029182018190556020808501517f290decd9548b62a8d60345a988386fc84ba6bc95484008f6362f93160ef3e5648401556040808601517f290decd9548b62a8d60345a988386fc84ba6bc95484008f6362f93160ef3e565850181905560608701517f290decd9548b62a8d60345a988386fc84ba6bc95484008f6362f93160ef3e56686015560808701517f290decd9548b62a8d60345a988386fc84ba6bc95484008f6362f93160ef3e56786015560a08701517f290decd9548b62a8d60345a988386fc84ba6bc95484008f6362f93160ef3e56890950180546001600160a01b0319166001600160a01b0390961695909517909455805193845290830193909352945084917fce32688e5a82a57dbc754fac843417d513bcdf129281bbac2157c92ff2ff3842910160405180910390a2827f50210739e7b60be0169038c5e3f78ef433de4bbf2038a1136769dd0c9b42d9d360c86040516104cb91815260200190565b60405180910390a25f6104de8287610736565b600181905560405181815290915084907fba53455d168d4d286c1ad431e9aacd390ccd4d830ce727b2eef713a7cc4a0d249060200160405180910390a250505092915050565b80515f9061056b5760405162461bcd60e51b815260206004820152601460248201527324b73b30b634b210313637b1b590373ab6b132b960611b60448201526064016101cc565b5f8054819061057c906001906109ca565b8154811061058c5761058c6109a2565b905f5260205f2090600602019050806040516020016105ab91906109f0565b604051602081830303815290604052805190602001208360200151146106095760405162461bcd60e51b8152602060048201526013602482015272092dcecc2d8d2c840e0c2e4cadce840d0c2e6d606b1b60448201526064016101cc565b60015460408401511461065e5760405162461bcd60e51b815260206004820152601a60248201527f496e76616c69642064656c6179656420737461746520726f6f7400000000000060448201526064016101cc565b50600192915050565b5f8382146106a95760405162461bcd60e51b815260206004820152600f60248201526e098cadccee8d040dad2e6dac2e8c6d608b1b60448201526064016101cc565b5f805b8581101561072c57818787838181106106c7576106c76109a2565b905060200201358686848181106106e0576106e06109a2565b9050602002013560405160200161070a939291909283526020830191909152604082015260600190565b60408051601f19818403018152919052805160209091012091506001016106ac565b5095945050505050565b5f80835f015160405160200161075c91815264737461746560d81b602082015260250190565b6040516020818303038152906040528051906020012090505f838560a001516040516020016107a792919091825260601b6bffffffffffffffffffffffff1916602082015260340190565b60408051808303601f1901815282825280516020918201205f8681526002835283902081905588830151895192850152918301859052606083018290526080830152915060a00160405160208183030381529060405280519060200120925050505b92915050565b5f6020828403121561081f575f80fd5b5035919050565b80356001600160a01b038116811461083c575f80fd5b919050565b5f8060408385031215610852575f80fd5b8235915061086260208401610826565b90509250929050565b5f60c0828403121561087b575f80fd5b60405160c0810181811067ffffffffffffffff821117156108aa57634e487b7160e01b5f52604160045260245ffd5b806040525082358152602083013560208201526040830135604082015260608301356060820152608083013560808201526108e760a08401610826565b60a08201529392505050565b5f8083601f840112610903575f80fd5b50813567ffffffffffffffff81111561091a575f80fd5b6020830191508360208260051b8501011115610934575f80fd5b9250929050565b5f805f806040858703121561094e575f80fd5b843567ffffffffffffffff80821115610965575f80fd5b610971888389016108f3565b90965094506020870135915080821115610989575f80fd5b50610996878288016108f3565b95989497509550505050565b634e487b7160e01b5f52603260045260245ffd5b634e487b7160e01b5f52601160045260245ffd5b81810381811115610809576108096109b6565b80820180821115610809576108096109b6565b81548152600182015460208201526002820154604082015260038201546060820152600482015460808201526005909101546001600160a01b031660a082015260c0019056fea264697066735822122090c34c7f5349ffbace10311bd0a4eef1899428aa6e56e167af420b9119128e4d64736f6c63430008180033","linkReferences":{}},"methodIdentifiers":{"chain()":"c763e5a1","computeStateRootWithBAL(bytes32[],bytes32[])":"6465e877","getBlock(uint256)":"04c07569","getBlockCount()":"cc0bd62e","getLastComputedStateRoot()":"6f6a1ec3","processBlock(bytes32,address)":"17464d58","validateHeader((uint256,bytes32,bytes32,bytes32,uint256,address))":"20b09fc5"},"id":19}