{"abi":[{"type":"function","name":"chargeRegularGas","inputs":[{"name":"state","type":"tuple","internalType":"struct StateGasSimulator.GasState","components":[{"name":"gasLeft","type":"uint256","internalType":"uint256"},{"name":"stateGasReservoir","type":"uint256","internalType":"uint256"},{"name":"regularGasUsed","type":"uint256","internalType":"uint256"},{"name":"stateGasUsed","type":"uint256","internalType":"uint256"}]},{"name":"amount","type":"uint256","internalType":"uint256"}],"outputs":[{"name":"","type":"tuple","internalType":"struct StateGasSimulator.GasState","components":[{"name":"gasLeft","type":"uint256","internalType":"uint256"},{"name":"stateGasReservoir","type":"uint256","internalType":"uint256"},{"name":"regularGasUsed","type":"uint256","internalType":"uint256"},{"name":"stateGasUsed","type":"uint256","internalType":"uint256"}]}],"stateMutability":"pure"},{"type":"function","name":"chargeStateGas","inputs":[{"name":"state","type":"tuple","internalType":"struct StateGasSimulator.GasState","components":[{"name":"gasLeft","type":"uint256","internalType":"uint256"},{"name":"stateGasReservoir","type":"uint256","internalType":"uint256"},{"name":"regularGasUsed","type":"uint256","internalType":"uint256"},{"name":"stateGasUsed","type":"uint256","internalType":"uint256"}]},{"name":"amount","type":"uint256","internalType":"uint256"}],"outputs":[{"name":"","type":"tuple","internalType":"struct StateGasSimulator.GasState","components":[{"name":"gasLeft","type":"uint256","internalType":"uint256"},{"name":"stateGasReservoir","type":"uint256","internalType":"uint256"},{"name":"regularGasUsed","type":"uint256","internalType":"uint256"},{"name":"stateGasUsed","type":"uint256","internalType":"uint256"}]}],"stateMutability":"pure"},{"type":"function","name":"gasOpcode","inputs":[{"name":"state","type":"tuple","internalType":"struct StateGasSimulator.GasState","components":[{"name":"gasLeft","type":"uint256","internalType":"uint256"},{"name":"stateGasReservoir","type":"uint256","internalType":"uint256"},{"name":"regularGasUsed","type":"uint256","internalType":"uint256"},{"name":"stateGasUsed","type":"uint256","internalType":"uint256"}]}],"outputs":[{"name":"","type":"uint256","internalType":"uint256"}],"stateMutability":"pure"},{"type":"function","name":"initializeGasState","inputs":[{"name":"params","type":"tuple","internalType":"struct StateGasSimulator.TransactionParams","components":[{"name":"txGas","type":"uint256","internalType":"uint256"},{"name":"intrinsicRegular","type":"uint256","internalType":"uint256"},{"name":"intrinsicState","type":"uint256","internalType":"uint256"},{"name":"blockGasLimit","type":"uint256","internalType":"uint256"}]}],"outputs":[{"name":"state","type":"tuple","internalType":"struct StateGasSimulator.GasState","components":[{"name":"gasLeft","type":"uint256","internalType":"uint256"},{"name":"stateGasReservoir","type":"uint256","internalType":"uint256"},{"name":"regularGasUsed","type":"uint256","internalType":"uint256"},{"name":"stateGasUsed","type":"uint256","internalType":"uint256"}]}],"stateMutability":"pure"},{"type":"function","name":"simulateCreate","inputs":[{"name":"state","type":"tuple","internalType":"struct StateGasSimulator.GasState","components":[{"name":"gasLeft","type":"uint256","internalType":"uint256"},{"name":"stateGasReservoir","type":"uint256","internalType":"uint256"},{"name":"regularGasUsed","type":"uint256","internalType":"uint256"},{"name":"stateGasUsed","type":"uint256","internalType":"uint256"}]},{"name":"blockGasLimit","type":"uint256","internalType":"uint256"},{"name":"codeLength","type":"uint256","internalType":"uint256"}],"outputs":[{"name":"","type":"tuple","internalType":"struct StateGasSimulator.GasState","components":[{"name":"gasLeft","type":"uint256","internalType":"uint256"},{"name":"stateGasReservoir","type":"uint256","internalType":"uint256"},{"name":"regularGasUsed","type":"uint256","internalType":"uint256"},{"name":"stateGasUsed","type":"uint256","internalType":"uint256"}]}],"stateMutability":"pure"},{"type":"function","name":"simulateSSTORE","inputs":[{"name":"state","type":"tuple","internalType":"struct StateGasSimulator.GasState","components":[{"name":"gasLeft","type":"uint256","internalType":"uint256"},{"name":"stateGasReservoir","type":"uint256","internalType":"uint256"},{"name":"regularGasUsed","type":"uint256","internalType":"uint256"},{"name":"stateGasUsed","type":"uint256","internalType":"uint256"}]},{"name":"blockGasLimit","type":"uint256","internalType":"uint256"}],"outputs":[{"name":"","type":"tuple","internalType":"struct StateGasSimulator.GasState","components":[{"name":"gasLeft","type":"uint256","internalType":"uint256"},{"name":"stateGasReservoir","type":"uint256","internalType":"uint256"},{"name":"regularGasUsed","type":"uint256","internalType":"uint256"},{"name":"stateGasUsed","type":"uint256","internalType":"uint256"}]}],"stateMutability":"pure"},{"type":"function","name":"totalGasUsed","inputs":[{"name":"state","type":"tuple","internalType":"struct StateGasSimulator.GasState","components":[{"name":"gasLeft","type":"uint256","internalType":"uint256"},{"name":"stateGasReservoir","type":"uint256","internalType":"uint256"},{"name":"regularGasUsed","type":"uint256","internalType":"uint256"},{"name":"stateGasUsed","type":"uint256","internalType":"uint256"}]}],"outputs":[{"name":"","type":"uint256","internalType":"uint256"}],"stateMutability":"pure"},{"type":"event","name":"GasCharged","inputs":[{"name":"operation","type":"string","indexed":false,"internalType":"string"},{"name":"regularGas","type":"uint256","indexed":false,"internalType":"uint256"},{"name":"stateGas","type":"uint256","indexed":false,"internalType":"uint256"}],"anonymous":false},{"type":"event","name":"ReservoirUsed","inputs":[{"name":"amount","type":"uint256","indexed":false,"internalType":"uint256"},{"name":"remaining","type":"uint256","indexed":false,"internalType":"uint256"}],"anonymous":false}],"bytecode":{"object":"0x608060405234801561000f575f80fd5b50610cd48061001d5f395ff3fe608060405234801561000f575f80fd5b506004361061007b575f3560e01c8063a97d0c1311610059578063a97d0c131461010f578063c1f838931461013f578063da413d1a1461016f578063e90c24831461019f5761007b565b8063371b8b871461007f57806366b2bf34146100af578063709a4d6b146100df575b5f80fd5b610099600480360381019061009491906107e2565b6101cf565b6040516100a6919061081c565b60405180910390f35b6100c960048036038101906100c49190610835565b6101f6565b6040516100d691906108d5565b60405180910390f35b6100f960048036038101906100f49190610963565b61027e565b60405161010691906108d5565b60405180910390f35b61012960048036038101906101249190610835565b61036e565b60405161013691906108d5565b60405180910390f35b6101596004803603810190610154919061098e565b6103ad565b60405161016691906108d5565b60405180910390f35b610189600480360381019061018491906107e2565b610423565b604051610196919061081c565b60405180910390f35b6101b960048036038101906101b49190610835565b61042f565b6040516101c691906108d5565b60405180910390f35b5f81606001518260400151116101e95781606001516101ef565b81604001515b9050919050565b6101fe61067d565b81835f01511015610244576040517f08c379a000000000000000000000000000000000000000000000000000000000815260040161023b90610a38565b60405180910390fd5b81835f018181516102559190610a83565b91508181525050818360400181815161026e9190610ab6565b9150818152505082905092915050565b61028661067d565b5f8260400151836020015161029b9190610ab6565b905080835f015110156102e3576040517f08c379a00000000000000000000000000000000000000000000000000000000081526004016102da90610b33565b60405180910390fd5b5f81845f01516102f39190610a83565b90505f84602001516301c9c38061030a9190610a83565b905080821161032b5781845f0181815250505f84602001818152505061034a565b80845f01818152505080826103409190610a83565b8460200181815250505b84602001518460400181815250508460400151846060018181525050505050919050565b61037661067d565b5f610380836104ff565b509150505f610b54905061039485826101f6565b94506103a0858361042f565b9450849250505092915050565b6103b561067d565b5f6103bf846104ff565b505090505f806103d8858761054390919063ffffffff16565b915091505f816123286103eb9190610ab6565b90505f83856103fa9190610ab6565b905061040689836101f6565b9850610412898261042f565b985088955050505050509392505050565b5f815f01519050919050565b61043761067d565b818360200151106104605781836020018181516104549190610a83565b915081815250506104dd565b5f8360200151836104719190610a83565b90505f84602001818152505080845f015110156104c3576040517f08c379a00000000000000000000000000000000000000000000000000000000081526004016104ba90610b9b565b60405180910390fd5b80845f018181516104d49190610a83565b91508181525050505b81836060018181516104ef9190610ab6565b9150818152505082905092915050565b5f805f8061050c85610593565b905080607061051b9190610bb9565b935080602061052a9190610bb9565b92508060706105399190610bb9565b9150509193909250565b5f805f61054f85610593565b9050838161055d9190610bb9565b92505f6020601f8661056f9190610ab6565b6105799190610c27565b90508060066105889190610bb9565b925050509250929050565b5f80622819a0836105a49190610bb9565b90505f64190000000060026105b99190610bb9565b90505f81600183856105cb9190610ab6565b6105d59190610a83565b6105df9190610c27565b90505f61256a826105f09190610ab6565b90505f6105fc82610654565b90505f6005821161060d575f61061b565b60058261061a9190610a83565b5b90505f818285901c901b905061256a8111610637576001610646565b61256a816106459190610a83565b5b975050505050505050919050565b5f5b5f82111561067857808061066990610c57565b915050600182901c9150610656565b919050565b60405180608001604052805f81526020015f81526020015f81526020015f81525090565b5f604051905090565b5f80fd5b5f80fd5b5f601f19601f8301169050919050565b7f4e487b71000000000000000000000000000000000000000000000000000000005f52604160045260245ffd5b6106f8826106b2565b810181811067ffffffffffffffff82111715610717576107166106c2565b5b80604052505050565b5f6107296106a1565b905061073582826106ef565b919050565b5f819050919050565b61074c8161073a565b8114610756575f80fd5b50565b5f8135905061076781610743565b92915050565b5f60808284031215610782576107816106ae565b5b61078c6080610720565b90505f61079b84828501610759565b5f8301525060206107ae84828501610759565b60208301525060406107c284828501610759565b60408301525060606107d684828501610759565b60608301525092915050565b5f608082840312156107f7576107f66106aa565b5b5f6108048482850161076d565b91505092915050565b6108168161073a565b82525050565b5f60208201905061082f5f83018461080d565b92915050565b5f8060a0838503121561084b5761084a6106aa565b5b5f6108588582860161076d565b925050608061086985828601610759565b9150509250929050565b61087c8161073a565b82525050565b608082015f8201516108965f850182610873565b5060208201516108a96020850182610873565b5060408201516108bc6040850182610873565b5060608201516108cf6060850182610873565b50505050565b5f6080820190506108e85f830184610882565b92915050565b5f60808284031215610903576109026106ae565b5b61090d6080610720565b90505f61091c84828501610759565b5f83015250602061092f84828501610759565b602083015250604061094384828501610759565b604083015250606061095784828501610759565b60608301525092915050565b5f60808284031215610978576109776106aa565b5b5f610985848285016108ee565b91505092915050565b5f805f60c084860312156109a5576109a46106aa565b5b5f6109b28682870161076d565b93505060806109c386828701610759565b92505060a06109d486828701610759565b9150509250925092565b5f82825260208201905092915050565b7f6f7574206f66206761732028726567756c6172290000000000000000000000005f82015250565b5f610a226014836109de565b9150610a2d826109ee565b602082019050919050565b5f6020820190508181035f830152610a4f81610a16565b9050919050565b7f4e487b71000000000000000000000000000000000000000000000000000000005f52601160045260245ffd5b5f610a8d8261073a565b9150610a988361073a565b9250828203905081811115610ab057610aaf610a56565b5b92915050565b5f610ac08261073a565b9150610acb8361073a565b9250828201905080821115610ae357610ae2610a56565b5b92915050565b7f696e73756666696369656e742067617320666f7220696e7472696e73696300005f82015250565b5f610b1d601e836109de565b9150610b2882610ae9565b602082019050919050565b5f6020820190508181035f830152610b4a81610b11565b9050919050565b7f6f7574206f6620676173202873746174652900000000000000000000000000005f82015250565b5f610b856012836109de565b9150610b9082610b51565b602082019050919050565b5f6020820190508181035f830152610bb281610b79565b9050919050565b5f610bc38261073a565b9150610bce8361073a565b9250828202610bdc8161073a565b91508282048414831517610bf357610bf2610a56565b5b5092915050565b7f4e487b71000000000000000000000000000000000000000000000000000000005f52601260045260245ffd5b5f610c318261073a565b9150610c3c8361073a565b925082610c4c57610c4b610bfa565b5b828204905092915050565b5f610c618261073a565b91507fffffffffffffffffffffffffffffffffffffffffffffffffffffffffffffffff8203610c9357610c92610a56565b5b60018201905091905056fea2646970667358221220b37b42f5aa71285c8d8084ba9aeccd167b200f6fd6fea2802fe10da39627075464736f6c63430008180033","linkReferences":{}},"methodIdentifiers":{"chargeRegularGas((uint256,uint256,uint256,uint256),uint256)":"66b2bf34","chargeStateGas((uint256,uint256,uint256,uint256),uint256)":"e90c2483","gasOpcode((uint256,uint256,uint256,uint256))":"da413d1a","initializeGasState((uint256,uint256,uint256,uint256))":"709a4d6b","simulateCreate((uint256,uint256,uint256,uint256),uint256,uint256)":"c1f83893","simulateSSTORE((uint256,uint256,uint256,uint256),uint256)":"a97d0c13","totalGasUsed((uint256,uint256,uint256,uint256))":"371b8b87"},"id":20}