{"abi":[{"type":"constructor","inputs":[],"stateMutability":"nonpayable"},{"type":"function","name":"blocks","inputs":[{"name":"","type":"uint256","internalType":"uint256"}],"outputs":[{"name":"blockNumber","type":"uint256","internalType":"uint256"},{"name":"parentHash","type":"bytes32","internalType":"bytes32"},{"name":"stateRoot","type":"bytes32","internalType":"bytes32"},{"name":"transactionsRoot","type":"bytes32","internalType":"bytes32"},{"name":"timestamp","type":"uint256","internalType":"uint256"},{"name":"coinbase","type":"address","internalType":"address"}],"stateMutability":"view"},{"type":"function","name":"compareTiming","inputs":[],"outputs":[{"name":"traditionalMs","type":"uint256","internalType":"uint256"},{"name":"delayedMs","type":"uint256","internalType":"uint256"},{"name":"savedMs","type":"uint256","internalType":"uint256"}],"stateMutability":"view"},{"type":"function","name":"delayedValidationTime","inputs":[],"outputs":[{"name":"","type":"uint256","internalType":"uint256"}],"stateMutability":"view"},{"type":"function","name":"getBlock","inputs":[{"name":"index","type":"uint256","internalType":"uint256"}],"outputs":[{"name":"","type":"tuple","internalType":"struct DelayedStateRoot.BlockHeader","components":[{"name":"blockNumber","type":"uint256","internalType":"uint256"},{"name":"parentHash","type":"bytes32","internalType":"bytes32"},{"name":"stateRoot","type":"bytes32","internalType":"bytes32"},{"name":"transactionsRoot","type":"bytes32","internalType":"bytes32"},{"name":"timestamp","type":"uint256","internalType":"uint256"},{"name":"coinbase","type":"address","internalType":"address"}]}],"stateMutability":"view"},{"type":"function","name":"getBlockCount","inputs":[],"outputs":[{"name":"","type":"uint256","internalType":"uint256"}],"stateMutability":"view"},{"type":"function","name":"getLastStateRoot","inputs":[],"outputs":[{"name":"","type":"bytes32","internalType":"bytes32"}],"stateMutability":"view"},{"type":"function","name":"lastComputedStateRoot","inputs":[],"outputs":[{"name":"","type":"bytes32","internalType":"bytes32"}],"stateMutability":"view"},{"type":"function","name":"simulateBALSynergy","inputs":[{"name":"accessList","type":"bytes32[]","internalType":"bytes32[]"},{"name":"parallelSpeedup","type":"uint256","internalType":"uint256"}],"outputs":[{"name":"effectiveComputeTime","type":"uint256","internalType":"uint256"}],"stateMutability":"pure"},{"type":"function","name":"simulateDelayedBlock","inputs":[{"name":"txHashes","type":"bytes32[]","internalType":"bytes32[]"},{"name":"stateRootComputeTimeMs","type":"uint256","internalType":"uint256"}],"outputs":[{"name":"includedStateRoot","type":"bytes32","internalType":"bytes32"}],"stateMutability":"nonpayable"},{"type":"function","name":"simulateTraditionalBlock","inputs":[{"name":"txHashes","type":"bytes32[]","internalType":"bytes32[]"},{"name":"stateRootComputeTimeMs","type":"uint256","internalType":"uint256"}],"outputs":[{"name":"newStateRoot","type":"bytes32","internalType":"bytes32"}],"stateMutability":"nonpayable"},{"type":"function","name":"traditionalValidationTime","inputs":[],"outputs":[{"name":"","type":"uint256","internalType":"uint256"}],"stateMutability":"view"},{"type":"event","name":"BlockProposed","inputs":[{"name":"blockNumber","type":"uint256","indexed":true,"internalType":"uint256"},{"name":"stateRoot","type":"bytes32","indexed":false,"internalType":"bytes32"},{"name":"model","type":"string","indexed":false,"internalType":"string"}],"anonymous":false},{"type":"event","name":"StateRootComputed","inputs":[{"name":"forBlock","type":"uint256","indexed":true,"internalType":"uint256"},{"name":"root","type":"bytes32","indexed":false,"internalType":"bytes32"},{"name":"computeTimeMs","type":"uint256","indexed":false,"internalType":"uint256"}],"anonymous":false},{"type":"event","name":"ValidationComplete","inputs":[{"name":"blockNumber","type":"uint256","indexed":true,"internalType":"uint256"},{"name":"totalTimeMs","type":"uint256","indexed":false,"internalType":"uint256"},{"name":"model","type":"string","indexed":false,"internalType":"string"}],"anonymous":false}],"bytecode":{"object":"0x608060405234801561000f575f5ffd5b506040805160c0810182525f808252602082018181527f14bdefaf5c5acb814a87246cd1d74e6b5f63374b0d250494809922ec2d5e990e93830193845260608301828152426080850190815260a0850184815284546001808201875586805296517f290decd9548b62a8d60345a988386fc84ba6bc95484008f6362f93160ef3e56360069092029182015593517f290decd9548b62a8d60345a988386fc84ba6bc95484008f6362f93160ef3e56485015595517f290decd9548b62a8d60345a988386fc84ba6bc95484008f6362f93160ef3e565840181905591517f290decd9548b62a8d60345a988386fc84ba6bc95484008f6362f93160ef3e566840155517f290decd9548b62a8d60345a988386fc84ba6bc95484008f6362f93160ef3e56783015593517f290decd9548b62a8d60345a988386fc84ba6bc95484008f6362f93160ef3e56890910180546001600160a01b0319166001600160a01b03909216919091179055919055610b0190819061018890395ff3fe608060405234801561000f575f5ffd5b50600436106100a5575f3560e01c8063682758ba1161006e578063682758ba1461014d578063a3398d6714610160578063a3f67c4b14610168578063c837669f1461018b578063cc0bd62e1461019e578063f25b3f99146101a5575f5ffd5b80627833bc146100a957806302e8b7dc146100c557806304c07569146100ce5780633e9bdd9e14610131578063437d730b14610144575b5f5ffd5b6100b260035481565b6040519081526020015b60405180910390f35b6100b260015481565b6100e16100dc366004610958565b6101ee565b6040516100bc9190815181526020808301519082015260408083015190820152606080830151908201526080808301519082015260a0918201516001600160a01b03169181019190915260c00190565b6100b261013f36600461096f565b6102ea565b6100b260025481565b6100b261015b36600461096f565b61033a565b6001546100b2565b6101706105a7565b604080519384526020840192909252908201526060016100bc565b6100b261019936600461096f565b6105cc565b5f546100b2565b6101b86101b3366004610958565b61082e565b60408051968752602087019590955293850192909252606084015260808301526001600160a01b031660a082015260c0016100bc565b61022a6040518060c001604052805f81526020015f81526020015f81526020015f81526020015f81526020015f6001600160a01b031681525090565b5f5482106102755760405162461bcd60e51b8152602060048201526014602482015273109b1bd8dac8191bd95cc81b9bdd08195e1a5cdd60621b604482015260640160405180910390fd5b5f8281548110610287576102876109e4565b5f9182526020918290206040805160c08101825260069093029091018054835260018101549383019390935260028301549082015260038201546060820152600482015460808201526005909101546001600160a01b031660a082015292915050565b5f60c860646102f98482610a0c565b6103039083610a1f565b61030d9190610a36565b91506064841115610332576064610325836050610a1f565b61032f9190610a36565b91505b509392505050565b5f4281610347868661087a565b9050610354868686610913565b6040805160c081019091525f8054808352929550916020820190839061037c90600190610a0c565b8154811061038c5761038c6109e4565b5f918252602080832060069283020160020154845283810189905260408085018890524260608087019190915233608096870152845460018101865594805286517f290decd9548b62a8d60345a988386fc84ba6bc95484008f6362f93160ef3e5639590940294850193909355908501517f290decd9548b62a8d60345a988386fc84ba6bc95484008f6362f93160ef3e5648401558401517f290decd9548b62a8d60345a988386fc84ba6bc95484008f6362f93160ef3e5658301558301517f290decd9548b62a8d60345a988386fc84ba6bc95484008f6362f93160ef3e566820155908201517f290decd9548b62a8d60345a988386fc84ba6bc95484008f6362f93160ef3e56782015560a08201517f290decd9548b62a8d60345a988386fc84ba6bc95484008f6362f93160ef3e56890910180546001600160a01b0319166001600160a01b0390921691909117905590506104ea856032610a55565b60025580516040517f5caddcbbe434a1b837958792663418216d16e3601f94200420a1f65d51ec70bb9061051f908790610a68565b60405180910390a2805160408051868152602081018890527fc5c692afb8be0eaef43dc0dc7c0ec3aa83c6e26f4cdd2d780341056af7910d22910160405180910390a280516002546040517f78c558a8616f1d64a9fdb5a10ef4e7072f2e7cb38015410480e882cac0168ea09161059591610a68565b60405180910390a25050509392505050565b6002546003545f8183116105bb575f6105c5565b6105c58284610a0c565b9050909192565b6001545f6105da858561087a565b6040805160c081019091525f8054808352929350916020820190839061060290600190610a0c565b81548110610612576106126109e4565b5f918252602080832060069283020160020154845283810188905260408085018890524260608087019190915233608096870152845460018101865594805286517f290decd9548b62a8d60345a988386fc84ba6bc95484008f6362f93160ef3e56395909402948501849055918601517f290decd9548b62a8d60345a988386fc84ba6bc95484008f6362f93160ef3e564850155858101517f290decd9548b62a8d60345a988386fc84ba6bc95484008f6362f93160ef3e565850155908501517f290decd9548b62a8d60345a988386fc84ba6bc95484008f6362f93160ef3e566840155928401517f290decd9548b62a8d60345a988386fc84ba6bc95484008f6362f93160ef3e56783015560a08401517f290decd9548b62a8d60345a988386fc84ba6bc95484008f6362f93160ef3e56890920180546001600160a01b0319166001600160a01b039093169290921790915560326003559051919250907f5caddcbbe434a1b837958792663418216d16e3601f94200420a1f65d51ec70bb9061079d908690610a9f565b60405180910390a280516003546040517f78c558a8616f1d64a9fdb5a10ef4e7072f2e7cb38015410480e882cac0168ea0916107d891610a9f565b60405180910390a25f6107ec878787610913565b60018190558251604080518381526020810189905292935090917fc5c692afb8be0eaef43dc0dc7c0ec3aa83c6e26f4cdd2d780341056af7910d229101610595565b5f818154811061083c575f80fd5b5f918252602090912060069091020180546001820154600283015460038401546004850154600590950154939550919390926001600160a01b031686565b5f81810361088957505f61090d565b5f83835f81811061089c5761089c6109e4565b9050602002013590505f600190505b8381101561090957818585838181106108c6576108c66109e4565b905060200201356040516020016108e7929190918252602082015260400190565b60408051601f19818403018152919052805160209091012091506001016108ab565b5090505b92915050565b5f600154610921858561087a565b6040805160208101939093528201524260608201526080016040516020818303038152906040528051906020012090509392505050565b5f60208284031215610968575f5ffd5b5035919050565b5f5f5f60408486031215610981575f5ffd5b833567ffffffffffffffff811115610997575f5ffd5b8401601f810186136109a7575f5ffd5b803567ffffffffffffffff8111156109bd575f5ffd5b8660208260051b84010111156109d1575f5ffd5b6020918201979096509401359392505050565b634e487b7160e01b5f52603260045260245ffd5b634e487b7160e01b5f52601160045260245ffd5b8181038181111561090d5761090d6109f8565b808202811582820484141761090d5761090d6109f8565b5f82610a5057634e487b7160e01b5f52601260045260245ffd5b500490565b8082018082111561090d5761090d6109f8565b818152604060208201525f610a9860408301600b81526a1d1c98591a5d1a5bdb985b60aa1b602082015260400190565b9392505050565b818152604060208201525f610a9860408301600781526619195b185e595960ca1b60208201526040019056fea2646970667358221220c52997a05d76b606570d372a0a2b335ca8354c019a41aeebe50ba15b260dcc7d64736f6c634300081c0033","linkReferences":{}},"methodIdentifiers":{"blocks(uint256)":"f25b3f99","compareTiming()":"a3f67c4b","delayedValidationTime()":"007833bc","getBlock(uint256)":"04c07569","getBlockCount()":"cc0bd62e","getLastStateRoot()":"a3398d67","lastComputedStateRoot()":"02e8b7dc","simulateBALSynergy(bytes32[],uint256)":"3e9bdd9e","simulateDelayedBlock(bytes32[],uint256)":"c837669f","simulateTraditionalBlock(bytes32[],uint256)":"682758ba","traditionalValidationTime()":"437d730b"},"id":21}