{"abi":[{"type":"function","name":"approvalState","inputs":[],"outputs":[{"name":"senderApproved","type":"bool","internalType":"bool"},{"name":"payerApproved","type":"bool","internalType":"bool"},{"name":"payer","type":"address","internalType":"address"},{"name":"collectedFees","type":"uint256","internalType":"uint256"}],"stateMutability":"view"},{"type":"function","name":"approve","inputs":[{"name":"target","type":"address","internalType":"address"},{"name":"sender","type":"address","internalType":"address"},{"name":"scope","type":"uint8","internalType":"enum ApprovalScope"},{"name":"returnData","type":"bytes","internalType":"bytes"},{"name":"totalGasCost","type":"uint256","internalType":"uint256"}],"outputs":[],"stateMutability":"nonpayable"},{"type":"function","name":"isFullyApproved","inputs":[],"outputs":[{"name":"","type":"bool","internalType":"bool"}],"stateMutability":"view"},{"type":"function","name":"nonces","inputs":[{"name":"","type":"address","internalType":"address"}],"outputs":[{"name":"","type":"uint256","internalType":"uint256"}],"stateMutability":"view"},{"type":"function","name":"resetApprovalState","inputs":[],"outputs":[],"stateMutability":"nonpayable"},{"type":"event","name":"Approved","inputs":[{"name":"caller","type":"address","indexed":true,"internalType":"address"},{"name":"target","type":"address","indexed":true,"internalType":"address"},{"name":"scope","type":"uint8","indexed":false,"internalType":"enum ApprovalScope"},{"name":"returnData","type":"bytes","indexed":false,"internalType":"bytes"}],"anonymous":false},{"type":"event","name":"FeesCollected","inputs":[{"name":"payer","type":"address","indexed":true,"internalType":"address"},{"name":"amount","type":"uint256","indexed":false,"internalType":"uint256"}],"anonymous":false},{"type":"event","name":"NonceIncremented","inputs":[{"name":"account","type":"address","indexed":true,"internalType":"address"},{"name":"newNonce","type":"uint256","indexed":false,"internalType":"uint256"}],"anonymous":false},{"type":"error","name":"AlreadyApproved","inputs":[{"name":"scope","type":"uint8","internalType":"enum ApprovalScope"}]},{"type":"error","name":"CallerNotSender","inputs":[{"name":"caller","type":"address","internalType":"address"},{"name":"sender","type":"address","internalType":"address"}]},{"type":"error","name":"CallerNotTarget","inputs":[{"name":"caller","type":"address","internalType":"address"},{"name":"target","type":"address","internalType":"address"}]},{"type":"error","name":"InsufficientBalance","inputs":[{"name":"payer","type":"address","internalType":"address"},{"name":"required","type":"uint256","internalType":"uint256"},{"name":"available","type":"uint256","internalType":"uint256"}]},{"type":"error","name":"SenderNotApproved","inputs":[]}],"bytecode":{"object":"0x6080604052348015600e575f5ffd5b5061067e8061001c5f395ff3fe608060405234801561000f575f5ffd5b5060043610610055575f3560e01c80631afcf159146100595780637bf3b6c5146100be5780637ecebe00146100d6578063e7355e4d14610103578063f8ebf0321461011c575b5f5ffd5b5f546001546100849160ff808216926101008304909116916201000090046001600160a01b03169084565b6040516100b59493929190931515845291151560208401526001600160a01b03166040830152606082015260800190565b60405180910390f35b6100c661012f565b60405190151581526020016100b5565b6100f56100e43660046104d4565b60026020525f908152604090205481565b6040519081526020016100b5565b61011a5f80546001600160b01b0319168155600155565b005b61011a61012a3660046104f4565b61014c565b5f805460ff16801561014757505f54610100900460ff165b905090565b336001600160a01b0387161461018b5760405163ac69c28b60e01b81523360048201526001600160a01b03871660248201526044015b60405180910390fd5b5f84600281111561019e5761019e6105a0565b03610213575f5460ff16156101c8578360405163265b6e2360e11b815260040161018291906105d4565b336001600160a01b038616146102025760405163168313db60e21b81523360048201526001600160a01b0386166024820152604401610182565b5f805460ff1916600117905561035f565b6001846002811115610227576102276105a0565b036102b6575f54610100900460ff1615610256578360405163265b6e2360e11b815260040161018291906105d4565b5f5460ff166102785760405163430c29ad60e11b815260040160405180910390fd5b61028286826103b6565b61028b85610442565b5f80546001600160a01b0388166201000002610100600160b01b03199091161761010017905561035f565b5f5460ff16806102cc57505f54610100900460ff165b156102ec578360405163265b6e2360e11b815260040161018291906105d4565b336001600160a01b038616146103265760405163168313db60e21b81523360048201526001600160a01b0386166024820152604401610182565b61033086826103b6565b61033985610442565b5f80546001600160a01b03881662010000026001600160b01b0319909116176101011790555b856001600160a01b0316336001600160a01b03167fddbb50dc59e0c47a56fb013f8146612a6626c20fe917ece5b3de7ba728e869ad8686866040516103a6939291906105e8565b60405180910390a3505050505050565b80826001600160a01b03163110156103fb5760405163db42144d60e01b81526001600160a01b0383166004820181905260248201839052316044820152606401610182565b60018190556040518181526001600160a01b038316907f9dc46f23cfb5ddcad0ae7ea2be38d47fec07bb9382ec7e564efc69e036dd66ce9060200160405180910390a25050565b6001600160a01b0381165f90815260026020526040812080549161046583610624565b90915550506001600160a01b0381165f818152600260209081526040918290205491519182527fa82a649bbd060c9099cd7b7326e2b0dc9e9af0836480e0f849dc9eaa79710b3b910160405180910390a250565b80356001600160a01b03811681146104cf575f5ffd5b919050565b5f602082840312156104e4575f5ffd5b6104ed826104b9565b9392505050565b5f5f5f5f5f5f60a08789031215610509575f5ffd5b610512876104b9565b9550610520602088016104b9565b9450604087013560038110610533575f5ffd5b9350606087013567ffffffffffffffff81111561054e575f5ffd5b8701601f8101891361055e575f5ffd5b803567ffffffffffffffff811115610574575f5ffd5b896020828401011115610585575f5ffd5b96999598509396602090940195946080909401359392505050565b634e487b7160e01b5f52602160045260245ffd5b600381106105d057634e487b7160e01b5f52602160045260245ffd5b9052565b602081016105e282846105b4565b92915050565b6105f281856105b4565b60406020820152816040820152818360608301375f818301606090810191909152601f909201601f1916010192915050565b5f6001820161064157634e487b7160e01b5f52601160045260245ffd5b506001019056fea264697066735822122061a3d5ab9c440fec920c4c23a79424bf4ba5c4fa2bc23a7b90c65b510f3c4c3264736f6c634300081c0033","linkReferences":{}},"methodIdentifiers":{"approvalState()":"1afcf159","approve(address,address,uint8,bytes,uint256)":"f8ebf032","isFullyApproved()":"7bf3b6c5","nonces(address)":"7ecebe00","resetApprovalState()":"e7355e4d"},"id":20}