{"abi":[{"type":"constructor","inputs":[{"name":"_approveSimulator","type":"address","internalType":"address"}],"stateMutability":"nonpayable"},{"type":"function","name":"approveSimulator","inputs":[],"outputs":[{"name":"","type":"address","internalType":"contract ApproveSimulator"}],"stateMutability":"view"},{"type":"function","name":"createAccount","inputs":[{"name":"owner","type":"address","internalType":"address"},{"name":"salt","type":"bytes32","internalType":"bytes32"}],"outputs":[{"name":"","type":"address","internalType":"address"}],"stateMutability":"nonpayable"},{"type":"function","name":"getAddress","inputs":[{"name":"owner","type":"address","internalType":"address"},{"name":"salt","type":"bytes32","internalType":"bytes32"}],"outputs":[{"name":"","type":"address","internalType":"address"}],"stateMutability":"view"},{"type":"event","name":"AccountCreated","inputs":[{"name":"account","type":"address","indexed":true,"internalType":"address"},{"name":"owner","type":"address","indexed":true,"internalType":"address"}],"anonymous":false}],"bytecode":{"object":"0x60a0604052348015600e575f5ffd5b50604051610ec9380380610ec9833981016040819052602b91603b565b6001600160a01b03166080526066565b5f60208284031215604a575f5ffd5b81516001600160a01b0381168114605f575f5ffd5b9392505050565b608051610e3f61008a5f395f818160770152818160ec01526101b40152610e3f5ff3fe608060405234801561000f575f5ffd5b506004361061003f575f3560e01c80637ac4ed6414610043578063dcb119b714610072578063f14ddffc14610099575b5f5ffd5b61005661005136600461026a565b6100ac565b6040516001600160a01b03909116815260200160405180910390f35b6100567f000000000000000000000000000000000000000000000000000000000000000081565b6100566100a736600461026a565b6101ae565b5f5f60ff60f81b3084604051806020016100c59061025d565b601f1982820381018352601f9091011660408181526001600160a01b038a811660208401527f0000000000000000000000000000000000000000000000000000000000000000169082015260600160408051601f198184030181529082905261013192916020016102b6565b6040516020818303038152906040528051906020012060405160200161018e94939291906001600160f81b031994909416845260609290921b6bffffffffffffffffffffffff191660018401526015830152603582015260550190565b60408051808303601f190181529190528051602090910120949350505050565b5f5f82847f00000000000000000000000000000000000000000000000000000000000000006040516101df9061025d565b6001600160a01b039283168152911660208201526040018190604051809103905ff5905080158015610213573d5f5f3e3d5ffd5b509050836001600160a01b0316816001600160a01b03167fac631f3001b55ea1509cf3d7e74898f85392a61a76e8149181ae1259622dabc860405160405180910390a39392505050565b610b37806102d383390190565b5f5f6040838503121561027b575f5ffd5b82356001600160a01b0381168114610291575f5ffd5b946020939093013593505050565b5f81518060208401855e5f93019283525090919050565b5f6102ca6102c4838661029f565b8461029f565b94935050505056fe6080604052348015600e575f5ffd5b50604051610b37380380610b37833981016040819052602b916087565b5f80546001600160a01b039384166001600160a01b0319918216179091556001805460ff60a01b1916600160a01b1790556002805492909316911617905560b3565b80516001600160a01b03811681146082575f5ffd5b919050565b5f5f604083850312156097575f5ffd5b609e83606d565b915060aa60208401606d565b90509250929050565b610a77806100c05f395ff3fe608060405260043610610071575f3560e01c806383525dac1161004c57806383525dac1461010b5780638da5cb5b1461013a578063b61d27f614610158578063dcb119b714610178575f5ffd5b8063312c66cd1461007c57806342cde4e8146100b85780636a971b7b146100ea575f5ffd5b3661007857005b5f5ffd5b348015610087575f5ffd5b5060015461009b906001600160a01b031681565b6040516001600160a01b0390911681526020015b60405180910390f35b3480156100c3575f5ffd5b506001546100d890600160a01b900460ff1681565b60405160ff90911681526020016100af565b3480156100f5575f5ffd5b506101096101043660046107f5565b610197565b005b348015610116575f5ffd5b5061012a610125366004610874565b6101fe565b60405190151581526020016100af565b348015610145575f5ffd5b505f5461009b906001600160a01b031681565b61016b6101663660046108d2565b610466565b6040516100af9190610928565b348015610183575f5ffd5b5060025461009b906001600160a01b031681565b5f546001600160a01b031633148015906101b15750333014155b156101cf576040516330cd747160e01b815260040160405180910390fd5b6001805460ff909216600160a01b026001600160a81b03199092166001600160a01b0390931692909217179055565b5f600183101561026957847f11d00145008f7ee5d6950e45ac4cdb041848eaf79770959b353d34a3aea334e460405161025a906020808252600f908201526e456d707479207369676e617475726560881b604082015260600190565b60405180910390a2505f61045e565b5f84845f81811061027c5761027c61095d565b919091013560f81c91503690505f610297866001818a610971565b90925090505f60ff84166102b7576102b089848461054f565b9050610351565b5f1960ff8516016102cd576102b08984846105fe565b60011960ff8516016102e4576102b089848461066e565b887f11d00145008f7ee5d6950e45ac4cdb041848eaf79770959b353d34a3aea334e460405161033d90602080825260169082015275556e6b6e6f776e207369676e6174757265207479706560501b604082015260600190565b60405180910390a25f94505050505061045e565b806103b657887f11d00145008f7ee5d6950e45ac4cdb041848eaf79770959b353d34a3aea334e460405161033d906020808252601d908201527f5369676e617475726520766572696669636174696f6e206661696c6564000000604082015260600190565b600254604051637c75f81960e11b8152620186a0916001600160a01b03169063f8ebf032906103ef90309081908c9087906004016109b8565b5f604051808303815f87803b158015610406575f5ffd5b505af1158015610418573d5f5f3e3d5ffd5b50505050897f7941687a56e166a2a45add7b0f1eb7ab4c527d41a06600227bc1a8def384fed48860405161044c91906109f9565b60405180910390a26001955050505050505b949350505050565b606033301480159061048257505f546001600160a01b03163314155b156104a05760405163ea8e4eb560e01b815260040160405180910390fd5b5f5f866001600160a01b03168686866040516104bd929190610a0d565b5f6040518083038185875af1925050503d805f81146104f7576040519150601f19603f3d011682016040523d82523d5f602084013e6104fc565b606091505b5091509150816105455760405162461bcd60e51b815260206004820152601060248201526f115e1958dd5d1a5bdb8819985a5b195960821b604482015260640160405180910390fd5b9695505050505050565b5f6041821461055f57505f6105f7565b8235602084013560408501355f1a601b81101561058457610581601b82610a1c565b90505b604080515f808252602082018084528a905260ff841692820192909252606081018590526080810184905260019060a0016020604051602081039080840390855afa1580156105d5573d5f5f3e3d5ffd5b5050604051601f1901515f546001600160a01b03918216911614955050505050505b9392505050565b5f604082101561060f57505f6105f7565b5f8054604080516020810188905260609290921b6bffffffffffffffffffffffff1916908201526639b1b43737b93960c91b6054820152605b0160408051601f1981840301815291905280516020909101208435149150509392505050565b5f600160149054906101000a900460ff1660ff1660010361069b5761069484848461054f565b90506105f7565b608282146106aa57505f6105f7565b365f6106b96041828688610971565b9092509050365f6106ce60826041888a610971565b915091505f6106f28986865f5f9054906101000a90046001600160a01b031661072c565b6001549091505f90610712908b90869086906001600160a01b031661072c565b905081801561071e5750805b9a9950505050505050505050565b5f6041831461073c57505f61045e565b8335602085013560408601355f1a601b8110156107615761075e601b82610a1c565b90505b604080515f808252602082018084528b905260ff841692820192909252606081018590526080810184905260019060a0016020604051602081039080840390855afa1580156107b2573d5f5f3e3d5ffd5b5050604051601f1901516001600160a01b039081169088161495505050505050949350505050565b80356001600160a01b03811681146107f0575f5ffd5b919050565b5f5f60408385031215610806575f5ffd5b61080f836107da565b9150602083013560ff81168114610824575f5ffd5b809150509250929050565b5f5f83601f84011261083f575f5ffd5b50813567ffffffffffffffff811115610856575f5ffd5b60208301915083602082850101111561086d575f5ffd5b9250929050565b5f5f5f5f60608587031215610887575f5ffd5b84359350602085013567ffffffffffffffff8111156108a4575f5ffd5b6108b08782880161082f565b9094509250506040850135600381106108c7575f5ffd5b939692955090935050565b5f5f5f5f606085870312156108e5575f5ffd5b6108ee856107da565b935060208501359250604085013567ffffffffffffffff811115610910575f5ffd5b61091c8782880161082f565b95989497509550505050565b602081525f82518060208401528060208501604085015e5f604082850101526040601f19601f83011684010191505092915050565b634e487b7160e01b5f52603260045260245ffd5b5f5f8585111561097f575f5ffd5b8386111561098b575f5ffd5b5050820193919092039150565b600381106109b457634e487b7160e01b5f52602160045260245ffd5b9052565b6001600160a01b038581168252841660208201526109d96040820184610998565b60a0606082018190525f90820152608081019190915260c0019392505050565b60208101610a078284610998565b92915050565b818382375f9101908152919050565b60ff8181168382160190811115610a0757634e487b7160e01b5f52601160045260245ffdfea264697066735822122091403554ffd6f74f71609c475b87d50d55be446ceb68044047dfa0cf44d9409e64736f6c634300081c0033a2646970667358221220d82d662d5b15c74681c5fbb18663fc69707f6a05fc95b9132cfb4456a245794e64736f6c634300081c0033","linkReferences":{}},"methodIdentifiers":{"approveSimulator()":"dcb119b7","createAccount(address,bytes32)":"f14ddffc","getAddress(address,bytes32)":"7ac4ed64"},"id":18}